{
  "_format": "hh-sol-artifact-1",
  "contractName": "Ballot",
  "sourceName": "contracts/Ballot.sol",
  "abi": [
    {
      "inputs": [
        {
          "internalType": "string[]",
          "name": "proposalNames",
          "type": "string[]"
        },
        {
          "internalType": "address",
          "name": "_chairperson",
          "type": "address"
        }
      ],
      "stateMutability": "nonpayable",
      "type": "constructor"
    },
    {
      "inputs": [],
      "name": "chairperson",
      "outputs": [
        {
          "internalType": "address",
          "name": "",
          "type": "address"
        }
      ],
      "stateMutability": "view",
      "type": "function"
    },
    {
      "inputs": [
        {
          "internalType": "address",
          "name": "to",
          "type": "address"
        }
      ],
      "name": "delegate",
      "outputs": [],
      "stateMutability": "nonpayable",
      "type": "function"
    },
    {
      "inputs": [],
      "name": "endVote",
      "outputs": [
        {
          "internalType": "bool",
          "name": "",
          "type": "bool"
        }
      ],
      "stateMutability": "view",
      "type": "function"
    },
    {
      "inputs": [],
      "name": "getProposals",
      "outputs": [
        {
          "components": [
            {
              "internalType": "string",
              "name": "name",
              "type": "string"
            },
            {
              "internalType": "uint256",
              "name": "voteCount",
              "type": "uint256"
            }
          ],
          "internalType": "struct Ballot.Proposal[]",
          "name": "",
          "type": "tuple[]"
        }
      ],
      "stateMutability": "view",
      "type": "function"
    },
    {
      "inputs": [
        {
          "internalType": "address",
          "name": "voter",
          "type": "address"
        }
      ],
      "name": "giveRightToVote",
      "outputs": [],
      "stateMutability": "nonpayable",
      "type": "function"
    },
    {
      "inputs": [
        {
          "internalType": "uint256",
          "name": "",
          "type": "uint256"
        }
      ],
      "name": "proposals",
      "outputs": [
        {
          "internalType": "string",
          "name": "name",
          "type": "string"
        },
        {
          "internalType": "uint256",
          "name": "voteCount",
          "type": "uint256"
        }
      ],
      "stateMutability": "view",
      "type": "function"
    },
    {
      "inputs": [
        {
          "internalType": "uint256",
          "name": "proposal",
          "type": "uint256"
        }
      ],
      "name": "vote",
      "outputs": [],
      "stateMutability": "nonpayable",
      "type": "function"
    },
    {
      "inputs": [
        {
          "internalType": "address",
          "name": "",
          "type": "address"
        }
      ],
      "name": "voters",
      "outputs": [
        {
          "internalType": "uint256",
          "name": "weight",
          "type": "uint256"
        },
        {
          "internalType": "bool",
          "name": "voted",
          "type": "bool"
        },
        {
          "internalType": "address",
          "name": "delegate",
          "type": "address"
        },
        {
          "internalType": "uint256",
          "name": "vote",
          "type": "uint256"
        }
      ],
      "stateMutability": "view",
      "type": "function"
    },
    {
      "inputs": [],
      "name": "winner",
      "outputs": [
        {
          "internalType": "string",
          "name": "",
          "type": "string"
        }
      ],
      "stateMutability": "view",
      "type": "function"
    },
    {
      "inputs": [],
      "name": "winnerName",
      "outputs": [
        {
          "internalType": "string",
          "name": "winnerName_",
          "type": "string"
        }
      ],
      "stateMutability": "nonpayable",
      "type": "function"
    },
    {
      "inputs": [],
      "name": "winningProposal",
      "outputs": [
        {
          "internalType": "uint256",
          "name": "winningProposal_",
          "type": "uint256"
        }
      ],
      "stateMutability": "view",
      "type": "function"
    }
  ],
  "bytecode": "0x60806040526000600260006101000a81548160ff0219169083151502179055503480156200002c57600080fd5b5060405162001de838038062001de883398181016040528101906200005291906200039f565b806000806101000a81548173ffffffffffffffffffffffffffffffffffffffff021916908373ffffffffffffffffffffffffffffffffffffffff1602179055506001600360008060009054906101000a900473ffffffffffffffffffffffffffffffffffffffff1673ffffffffffffffffffffffffffffffffffffffff1673ffffffffffffffffffffffffffffffffffffffff1681526020019081526020016000206000018190555060005b8251811015620001cb57600460405180604001604052808584815181106200014f577f4e487b7100000000000000000000000000000000000000000000000000000000600052603260045260246000fd5b60200260200101518152602001600081525090806001815401808255809150506001900390600052602060002090600202016000909190919091506000820151816000019080519060200190620001a8929190620001d4565b506020820151816001015550508080620001c29062000539565b915050620000fe565b5050506200062e565b828054620001e29062000503565b90600052602060002090601f01602090048101928262000206576000855562000252565b82601f106200022157805160ff191683800117855562000252565b8280016001018555821562000252579182015b828111156200025157825182559160200191906001019062000234565b5b50905062000261919062000265565b5090565b5b808211156200028057600081600090555060010162000266565b5090565b60006200029b62000295846200042d565b620003f9565b9050808382526020820190508260005b85811015620002df5781518501620002c4888262000372565b845260208401935060208301925050600181019050620002ab565b5050509392505050565b600062000300620002fa846200045c565b620003f9565b9050828152602081018484840111156200031957600080fd5b62000326848285620004cd565b509392505050565b6000815190506200033f8162000614565b92915050565b600082601f8301126200035757600080fd5b81516200036984826020860162000284565b91505092915050565b600082601f8301126200038457600080fd5b815162000396848260208601620002e9565b91505092915050565b60008060408385031215620003b357600080fd5b600083015167ffffffffffffffff811115620003ce57600080fd5b620003dc8582860162000345565b9250506020620003ef858286016200032e565b9150509250929050565b6000604051905081810181811067ffffffffffffffff82111715620004235762000422620005e5565b5b8060405250919050565b600067ffffffffffffffff8211156200044b576200044a620005e5565b5b602082029050602081019050919050565b600067ffffffffffffffff8211156200047a5762000479620005e5565b5b601f19601f8301169050602081019050919050565b60006200049c82620004a3565b9050919050565b600073ffffffffffffffffffffffffffffffffffffffff82169050919050565b6000819050919050565b60005b83811015620004ed578082015181840152602081019050620004d0565b83811115620004fd576000848401525b50505050565b600060028204905060018216806200051c57607f821691505b60208210811415620005335762000532620005b6565b5b50919050565b60006200054682620004c3565b91507fffffffffffffffffffffffffffffffffffffffffffffffffffffffffffffffff8214156200057c576200057b62000587565b5b600182019050919050565b7f4e487b7100000000000000000000000000000000000000000000000000000000600052601160045260246000fd5b7f4e487b7100000000000000000000000000000000000000000000000000000000600052602260045260246000fd5b7f4e487b7100000000000000000000000000000000000000000000000000000000600052604160045260246000fd5b6200061f816200048f565b81146200062b57600080fd5b50565b6117aa806200063e6000396000f3fe608060405234801561001057600080fd5b50600436106100a95760003560e01c806362564c481161007157806362564c48146101535780639e7b8d6114610171578063a3ec138d1461018d578063b9223946146101c0578063dfbf53ae146101de578063e2ba53f0146101fc576100a9565b80630121b93f146100ae578063013cf08b146100ca5780632e4176cf146100fb5780635c19a95c14610119578063609ff1bd14610135575b600080fd5b6100c860048036038101906100c39190610f58565b61021a565b005b6100e460048036038101906100df9190610f58565b6103d7565b6040516100f2929190611395565b60405180910390f35b610103610493565b604051610110919061131b565b60405180910390f35b610133600480360381019061012e9190610f2f565b6104b7565b005b61013d610879565b60405161014a91906114c5565b60405180910390f35b61015b61094d565b6040516101689190611336565b60405180910390f35b61018b60048036038101906101869190610f2f565b610a48565b005b6101a760048036038101906101a29190610f2f565b610c00565b6040516101b794939291906114e0565b60405180910390f35b6101c8610c5d565b6040516101d59190611358565b60405180910390f35b6101e6610c70565b6040516101f39190611373565b60405180910390f35b610204610cfe565b6040516102119190611373565b60405180910390f35b6000600360003373ffffffffffffffffffffffffffffffffffffffff1673ffffffffffffffffffffffffffffffffffffffff16815260200190815260200160002090506000816000015414156102a5576040517f08c379a000000000000000000000000000000000000000000000000000000000815260040161029c90611465565b60405180910390fd5b8060010160009054906101000a900460ff16156102f7576040517f08c379a00000000000000000000000000000000000000000000000000000000081526004016102ee90611405565b60405180910390fd5b600260009054906101000a900460ff1615610347576040517f08c379a000000000000000000000000000000000000000000000000000000000815260040161033e906114a5565b60405180910390fd5b60018160010160006101000a81548160ff0219169083151502179055508181600201819055508060000154600483815481106103ac577f4e487b7100000000000000000000000000000000000000000000000000000000600052603260045260246000fd5b906000526020600020906002020160010160008282546103cc919061158b565b925050819055505050565b600481815481106103e757600080fd5b906000526020600020906002020160009150905080600001805461040a9061165c565b80601f01602080910402602001604051908101604052809291908181526020018280546104369061165c565b80156104835780601f1061045857610100808354040283529160200191610483565b820191906000526020600020905b81548152906001019060200180831161046657829003601f168201915b5050505050908060010154905082565b60008054906101000a900473ffffffffffffffffffffffffffffffffffffffff1681565b6000600360003373ffffffffffffffffffffffffffffffffffffffff1673ffffffffffffffffffffffffffffffffffffffff16815260200190815260200160002090508060010160009054906101000a900460ff161561054c576040517f08c379a0000000000000000000000000000000000000000000000000000000008152600401610543906113e5565b60405180910390fd5b3373ffffffffffffffffffffffffffffffffffffffff168273ffffffffffffffffffffffffffffffffffffffff1614156105bb576040517f08c379a00000000000000000000000000000000000000000000000000000000081526004016105b290611445565b60405180910390fd5b5b600073ffffffffffffffffffffffffffffffffffffffff16600360008473ffffffffffffffffffffffffffffffffffffffff1673ffffffffffffffffffffffffffffffffffffffff16815260200190815260200160002060010160019054906101000a900473ffffffffffffffffffffffffffffffffffffffff1673ffffffffffffffffffffffffffffffffffffffff161461072b57600360008373ffffffffffffffffffffffffffffffffffffffff1673ffffffffffffffffffffffffffffffffffffffff16815260200190815260200160002060010160019054906101000a900473ffffffffffffffffffffffffffffffffffffffff1691503373ffffffffffffffffffffffffffffffffffffffff168273ffffffffffffffffffffffffffffffffffffffff161415610726576040517f08c379a000000000000000000000000000000000000000000000000000000000815260040161071d90611485565b60405180910390fd5b6105bc565b60018160010160006101000a81548160ff021916908315150217905550818160010160016101000a81548173ffffffffffffffffffffffffffffffffffffffff021916908373ffffffffffffffffffffffffffffffffffffffff1602179055506000600360008473ffffffffffffffffffffffffffffffffffffffff1673ffffffffffffffffffffffffffffffffffffffff16815260200190815260200160002090508060010160009054906101000a900460ff16156108545781600001546004826002015481548110610828577f4e487b7100000000000000000000000000000000000000000000000000000000600052603260045260246000fd5b90600052602060002090600202016001016000828254610848919061158b565b92505081905550610874565b816000015481600001600082825461086c919061158b565b925050819055505b505050565b6000806000905060005b6004805490508110156109485781600482815481106108cb577f4e487b7100000000000000000000000000000000000000000000000000000000600052603260045260246000fd5b9060005260206000209060020201600101541115610935576004818154811061091d577f4e487b7100000000000000000000000000000000000000000000000000000000600052603260045260246000fd5b90600052602060002090600202016001015491508092505b80806109409061168e565b915050610883565b505090565b60606004805480602002602001604051908101604052809291908181526020016000905b82821015610a3f57838290600052602060002090600202016040518060400160405290816000820180546109a49061165c565b80601f01602080910402602001604051908101604052809291908181526020018280546109d09061165c565b8015610a1d5780601f106109f257610100808354040283529160200191610a1d565b820191906000526020600020905b815481529060010190602001808311610a0057829003601f168201915b5050505050815260200160018201548152505081526020019060010190610971565b50505050905090565b60008054906101000a900473ffffffffffffffffffffffffffffffffffffffff1673ffffffffffffffffffffffffffffffffffffffff163373ffffffffffffffffffffffffffffffffffffffff1614610ad6576040517f08c379a0000000000000000000000000000000000000000000000000000000008152600401610acd90611425565b60405180910390fd5b600360008273ffffffffffffffffffffffffffffffffffffffff1673ffffffffffffffffffffffffffffffffffffffff16815260200190815260200160002060010160009054906101000a900460ff1615610b66576040517f08c379a0000000000000000000000000000000000000000000000000000000008152600401610b5d906113c5565b60405180910390fd5b6000600360008373ffffffffffffffffffffffffffffffffffffffff1673ffffffffffffffffffffffffffffffffffffffff1681526020019081526020016000206000015414610bb557600080fd5b6001600360008373ffffffffffffffffffffffffffffffffffffffff1673ffffffffffffffffffffffffffffffffffffffff1681526020019081526020016000206000018190555050565b60036020528060005260406000206000915090508060000154908060010160009054906101000a900460ff16908060010160019054906101000a900473ffffffffffffffffffffffffffffffffffffffff16908060020154905084565b600260009054906101000a900460ff1681565b60018054610c7d9061165c565b80601f0160208091040260200160405190810160405280929190818152602001828054610ca99061165c565b8015610cf65780601f10610ccb57610100808354040283529160200191610cf6565b820191906000526020600020905b815481529060010190602001808311610cd957829003601f168201915b505050505081565b6060600260009054906101000a900460ff1615610d50576040517f08c379a0000000000000000000000000000000000000000000000000000000008152600401610d47906114a5565b60405180910390fd5b6004610d5a610879565b81548110610d91577f4e487b7100000000000000000000000000000000000000000000000000000000600052603260045260246000fd5b90600052602060002090600202016000018054610dad9061165c565b80601f0160208091040260200160405190810160405280929190818152602001828054610dd99061165c565b8015610e265780601f10610dfb57610100808354040283529160200191610e26565b820191906000526020600020905b815481529060010190602001808311610e0957829003601f168201915b505050505090508060019080519060200190610e43929190610e62565b506001600260006101000a81548160ff02191690831515021790555090565b828054610e6e9061165c565b90600052602060002090601f016020900481019282610e905760008555610ed7565b82601f10610ea957805160ff1916838001178555610ed7565b82800160010185558215610ed7579182015b82811115610ed6578251825591602001919060010190610ebb565b5b509050610ee49190610ee8565b5090565b5b80821115610f01576000816000905550600101610ee9565b5090565b600081359050610f1481611746565b92915050565b600081359050610f298161175d565b92915050565b600060208284031215610f4157600080fd5b6000610f4f84828501610f05565b91505092915050565b600060208284031215610f6a57600080fd5b6000610f7884828501610f1a565b91505092915050565b6000610f8d83836112c0565b905092915050565b610f9e816115e1565b82525050565b6000610faf82611535565b610fb98185611558565b935083602082028501610fcb85611525565b8060005b858110156110075784840389528151610fe88582610f81565b9450610ff38361154b565b925060208a01995050600181019050610fcf565b50829750879550505050505092915050565b611022816115f3565b82525050565b600061103382611540565b61103d8185611569565b935061104d818560208601611629565b61105681611735565b840191505092915050565b600061106c82611540565b611076818561157a565b9350611086818560208601611629565b61108f81611735565b840191505092915050565b60006110a760178361157a565b91507f54686520766f74657220616c726561647920766f7465640000000000000000006000830152602082019050919050565b60006110e760118361157a565b91507f596f7520616c726561647920766f7465640000000000000000000000000000006000830152602082019050919050565b6000611127600d8361157a565b91507f416c726561647920766f746564000000000000000000000000000000000000006000830152602082019050919050565b600061116760288361157a565b91507f4f6e6c79206368616972706572736f6e2063616e20676976652072696768742060008301527f746f20766f74652e0000000000000000000000000000000000000000000000006020830152604082019050919050565b60006111cd601d8361157a565b91507f53656c662d64656c65676174696f6e20697320646973616c6c6f7765640000006000830152602082019050919050565b600061120d60158361157a565b91507f486173206e6f20726967687420746f20766f74652e00000000000000000000006000830152602082019050919050565b600061124d60188361157a565b91507f466f756e64206c6f6f7020696e2064656c65676174696f6e00000000000000006000830152602082019050919050565b600061128d601b8361157a565b91507f5468697320766f74652073657373696f6e2068616420656e64656400000000006000830152602082019050919050565b600060408301600083015184820360008601526112dd8282611028565b91505060208301516112f260208601826112fd565b508091505092915050565b6113068161161f565b82525050565b6113158161161f565b82525050565b60006020820190506113306000830184610f95565b92915050565b600060208201905081810360008301526113508184610fa4565b905092915050565b600060208201905061136d6000830184611019565b92915050565b6000602082019050818103600083015261138d8184611061565b905092915050565b600060408201905081810360008301526113af8185611061565b90506113be602083018461130c565b9392505050565b600060208201905081810360008301526113de8161109a565b9050919050565b600060208201905081810360008301526113fe816110da565b9050919050565b6000602082019050818103600083015261141e8161111a565b9050919050565b6000602082019050818103600083015261143e8161115a565b9050919050565b6000602082019050818103600083015261145e816111c0565b9050919050565b6000602082019050818103600083015261147e81611200565b9050919050565b6000602082019050818103600083015261149e81611240565b9050919050565b600060208201905081810360008301526114be81611280565b9050919050565b60006020820190506114da600083018461130c565b92915050565b60006080820190506114f5600083018761130c565b6115026020830186611019565b61150f6040830185610f95565b61151c606083018461130c565b95945050505050565b6000819050602082019050919050565b600081519050919050565b600081519050919050565b6000602082019050919050565b600082825260208201905092915050565b600082825260208201905092915050565b600082825260208201905092915050565b60006115968261161f565b91506115a18361161f565b9250827fffffffffffffffffffffffffffffffffffffffffffffffffffffffffffffffff038211156115d6576115d56116d7565b5b828201905092915050565b60006115ec826115ff565b9050919050565b60008115159050919050565b600073ffffffffffffffffffffffffffffffffffffffff82169050919050565b6000819050919050565b60005b8381101561164757808201518184015260208101905061162c565b83811115611656576000848401525b50505050565b6000600282049050600182168061167457607f821691505b6020821081141561168857611687611706565b5b50919050565b60006116998261161f565b91507fffffffffffffffffffffffffffffffffffffffffffffffffffffffffffffffff8214156116cc576116cb6116d7565b5b600182019050919050565b7f4e487b7100000000000000000000000000000000000000000000000000000000600052601160045260246000fd5b7f4e487b7100000000000000000000000000000000000000000000000000000000600052602260045260246000fd5b6000601f19601f8301169050919050565b61174f816115e1565b811461175a57600080fd5b50565b6117668161161f565b811461177157600080fd5b5056fea2646970667358221220bddc499b0d01638698d4588314a44e8b7fb5f0b958fc24af90ce97d960a013ec64736f6c63430008000033",
  "linkReferences": {},
  "deployedLinkReferences": {}
}